:020000040000FA
:1000000000008A150A120D2BF200030E8301F10085
:100010000A088A01F0000408831603179700831268
:1000200003130B11B03081008A110A1277248A1150
:100030000A12013A031D22288A150A12BD248A11C8
:100040000A1227288A150A129D248A110A12831679
:100050000317170883120313840070088A008301B2
:10006000710E8300F20E720E09000A308312031320
:10007000BA070318BB0A3A08143A031D42283B0882
:10008000003A031DEC2983120313BA01BB0183124A
:100090000313A9010330FF008312031329088A11F7
:1000A0000A12D8278A110A1283120313AA00AB017D
:1000B0002A08313EAC000030AD00003003182B0F91
:1000C000AD072A08313EAA002B0803182B0F003E6B
:1000D000AB00AA0A0319AB0A2A088312031384008F
:1000E0008313831203132B1883178312031300083F
:1000F00083120313AE002C088312031384008313AE
:10010000831203132D1883172E0883120313800004
:10011000831203132908031DA72804308312031335
:10012000060583120313AC0003102C0CAD00031062
:10013000AD0C2A0883120313840083138312031364
:100140002B1883172D08831203138000E0288312D5
:1001500003132908013A031DC52802308312031333
:10016000060583120313AC0003102C0CAD002A0803
:100170008312031384008313831203132B18831732
:100180002D08831203138000E0288312031329082B
:10019000023A031DE028013083120313060583127F
:1001A0000313AC00AD002A088312031384008313E9
:1001B000831203132B1883172D0883120313800057
:1001C0000330FF008312031329088A110A12D8276B
:1001D0008A110A1283120313AA00AB012A08313EC6
:1001E000AA00003003182B0F003EAB0002302A0794
:1001F000AC00AD01AD0D2B08AD072C088312031325
:1002000084008313831203132D188317831203139F
:10021000000883120313AE0004302E020318E529F0
:100220000130831203138A001E30831203132E073A
:10023000031C1D29831203138A0A820022295D29C7
:100240008629C129831203132A0883120313840009
:100250008313831203132B188317831203130008CD
:1002600083120313AE002E08031DE52901302A076F
:10027000AE00AF01AF0D2B08AF072E08831203139A
:1002800084008313831203132F188317831203131D
:10029000000883120313B0003008031DE5292C0861
:1002A0008312031384008313831203132D188317FF
:1002B0000130831203138000E529013083120313F8
:1002C0002A07AE00AF01AF0D2B08AF072E0883122F
:1002D000031384008313831203132F1883178312CD
:1002E0000313000883120313B0003008031DE5292F
:1002F0002C088312031384008313831203132D1815
:1003000083170230831203138000E529831203133D
:100310002A088312031384008313831203132B18F8
:10032000831783120313000883120313AE00013AEC
:10033000031DE52901302A07AE00AF01AF0D2B08E0
:10034000AF072E0883120313840083138312031351
:100350002F18831783120313000883120313B000AE
:10036000013A031DE5292C0883120313840083132B
:10037000831203132D188317033083120313800095
:10038000E52983120313AA0A0319AB0A2A08831268
:10039000031384008313831203132B188317831210
:1003A0000313000883120313AE00013A031DE5296D
:1003B0002C088312031384008313831203132D1854
:1003C0008317003083120313800083120313A90ADA
:1003D00003302902031C4A28080083120313A500D6
:1003E0000330FF0025088A110A12D8278A110A1241
:1003F00083120313A600A7012608313EA500003092
:10040000A80000300318270FA8070230A50703181B
:10041000A80A25088312031384008313831203138D
:100420002818831783120313000883120313A600EE
:10043000080083160313060883120313A00020117B
:100440000430200483160313860006088312031366
:10045000A000A010023020048316031386000608B3
:1004600083120313A000201001302004831603130D
:10047000860083120313A0010330FF0083120313CD
:1004800020088A110A12D8278A110A12831203132C
:10049000A100A2012108313EA3000030A4000030D9
:1004A0000318220FA4072308831203138400831365
:1004B000831203132418831701308312031380005F
:1004C000831203132108313EA3000030A400220848
:1004D0000318220FA407A30A0319A40A23088312EE
:1004E000031384008313831203132418831701302A
:1004F000831203138000831203132108313EA100ED
:1005000022080318220F003EA2000230A1070318A0
:10051000A20A210883120313840083138312031396
:1005200022188317003083120313800083120313F1
:10053000A00A03302002031C3C2A0800A922013A29
:10054000031DA42A2424A82A3C30FF0000303D24A7
:1005500008001030FF0000308A150A12A4218A1109
:100560000A12013A031DB62A0130C12A0130FE00E9
:100570001030FF0000308A150A12FE218A110A127B
:100580000030080002308A110A12ED218A110A1285
:10059000013A031DD72A831203136C08013A031D85
:1005A000D32AEC01D72A013083120313EC00080090
:1005B00083120313E901772483120313EA00013A3B
:1005C000031D4A2B831603171608031D0C2B00303E
:1005D0008A110A12ED218A110A1283120313EA000A
:1005E000013A0319FF2A01308A110A12ED218A11FA
:1005F0000A1283120313EA00013A031D0C2B013087
:100600008316031796000130831603179500831293
:100610000317ED01EE01582B831603171608013A54
:10062000031D4A2B00308A110A12ED218A110A1289
:1006300083120313EA00013A031D2E2B0130E90057
:100640004C30831203136B0203182E2B0530EB077B
:100650004C306B02031C2E2B4B30EB0001308A1107
:100660000A12ED218A110A1283120313EA00013AD9
:10067000031D4A2B0130E9002330831203136B0260
:10068000031C4A2BFB30EB0723306B0203184A2B69
:100690002330EB00831203136908013A031D582B22
:1006A000013083160317950083120317ED01EE0145
:1006B00008008A150A12C8208A110A12831203132D
:1006C000E300013A031D232C8A150A12CC208A115B
:1006D0000A1283120313E4007F08E300E601831289
:1006E00003136B0883120313E5006306031D7C2BC1
:1006F0006608640603190E2C8A150A12CC208A118A
:100700000A1283120313E4007F08E3008312031329
:100710006B0883120313E500E6010530E5070318B3
:10072000E60A6508E7006608E8006402031D9A2BE4
:1007300067086302031CC42B8A150A12CC208A1195
:100740000A1283120313E4007F08E300E601831218
:1007500003136B0883120313E5006306031DB42B18
:10076000660864060319C42B0030FF0000308A15A8
:100770000A1265258A110A120130FF0000308A151D
:100780000A1212258A110A128A150A12CC208A111D
:100790000A1283120313E4007F08E3008312031399
:1007A0006B0883120313E500E601FB30E507031C29
:1007B000E6036508E7006608E80064086802031DB0
:1007C000E32B63086702031C1E2C8A150A12CC2037
:1007D0008A110A1283120313E4007F08E300E60182
:1007E000831203136B0883120313E5006306031DD2
:1007F000FD2B6608640603191E2C0130FF00003033
:100800008A150A1265258A110A120030FF0000308D
:100810008A150A1212258A110A121E2C0030FF00B6
:1008200000308A150A1265258A110A120030FF006D
:1008300000308A150A1212258A110A128A150A1224
:10084000C4208A110A1208002030FF0000308A15E7
:100850000A12A4218A110A1283120313EB00080062
:10086000831203136B08FE002030FF0000308A154E
:100870000A12FE218A110A1208007F08831203134C
:10088000EB0008000A3083120313ED070318EE0A89
:100890006D08143A031D4F2C6E08003A031D762C88
:1008A00083120313ED01EE013024C222D822592312
:1008B000831603171508013A031D762C1430831292
:1008C0000317ED070318EE0A6D08883A031D6B2C19
:1008D0006E08133A031D762C83120317ED01EE0107
:1008E00083160317950183160317960108008312D8
:1008F00003136C080800831203136B08FF00003019
:1009000008003C3083120313EB0083120313EC0145
:1009100083160317950108008312031791019201B2
:1009200093010030831603171504031DA22C8A15AA
:100930000A12D2208A110A128312031792007F082A
:100940009100B22C831603171508013A031DB22C2F
:100950008A110A127B248A110A1283120317920049
:100960007F08910083120317110812040319F62C53
:100970000A30FD000030FE001108FF0012088A1541
:100980000A123C268A110A127F0883120317940068
:100990001308031DD82C1408FF0000308A110A1216
:1009A0004D268A110A120130831203179300E22C9C
:1009B000831203171408FF0001308A110A124D2612
:1009C0008A110A120A30FD000030FE00831203175C
:1009D0001108FF0012088A150A12A0258A110A12AE
:1009E0008312031792007F089100B22C0800003098
:1009F0008A150A124E258A110A12831203179000D3
:100A0000013A031D1C2D0A3083120317990703189E
:100A10009A0A1908E83A031D102D1A08033A031D13
:100A2000512D8312031799019A0100308A150A1279
:100A30005D248A110A12512D00308A150A12FB24F6
:100A40008A110A12831203179000013A031D312DF7
:100A50000130FF0000308A150A1243248A110A125D
:100A6000512D00308A150A12FB248A110A128312B2
:100A7000031790001008031D512D00308A150A122B
:100A80004E258A110A128312031790001008031DC5
:100A9000512D0030FF0000308A150A1243248A11BC
:100AA0000A120800831603171008031D5A2D01307F
:100AB00090005D2D8316031790010800831603171D
:100AC0001008013A031D662D8C24762D0A30FF0094
:100AD00000308A110A124D268A110A120A30FF00CC
:100AE00001308A110A124D268A110A1208000A30B2
:100AF0008312031795070318960A15080A3A031D6F
:100B0000842D1608003A031DA62D831203179501A4
:100B10009601F7240030831603171504031D922D48
:100B20008C24A62D0A308312031797070318980AFE
:100B30001708E83A031D9F2D1808033A031DA62D38
:100B4000831203179701980152255E250800003093
:100B50008A110A12B7268A110A1201308A110A1262
:100B6000B7268A110A120030FF0000308A110A12DB
:100B70004D268A110A120030FF0001308A110A1234
:100B80004D268A110A120030FF0000308A150A1221
:100B90007E248A110A12080083120313DE007F08E4
:100BA000DF000030FF000030F6250030FF0001308C
:100BB000F625831203135F081B3EDF000130031884
:100BC000013EE0005F088312031384008313831245
:100BD0000313601883178312031300088800013081
:100BE000FF00831203135E08F62508008312031327
:100BF000DB007F08DC005B08DD000319042E5B08C6
:100C0000013A0319162E252E8312031305088312A9
:100C10000313DB00DB125C0EF039DD000310DD0D89
:100C20005D085B04831203138500252E83120313D2
:100C3000050883120313DB005B125C0EF039DD0044
:100C4000DC005B0483120313850008008312031386
:100C5000D900DA0159080319322E5908013A03194B
:100C60003F2E492E203083120313050583120313F0
:100C7000D900590E0F39DA000310DA0C492E103062
:100C800083120313050583120313D900590E0F397C
:100C9000DA00831203135A08080083120313D600E4
:100CA0007F08D70056086B3ED60001300318013E7E
:100CB000D80056088312031384008313831203138E
:100CC00058188317570883120313800008008312F3
:100CD0000313D4006B3ED40001300318013ED5004D
:100CE00054088312031384008313831203135518CB
:100CF000831783120313000808000A3083120313BA
:100D0000E1070318E20A61080A3A031D8A2E620805
:100D1000003A031DB62E83120313E101E20183168C
:100D2000031711086B3E83120313D200013003181E
:100D3000013ED300520883120313840083138312ED
:100D4000031353188317831203130008FF0083163D
:100D500003171108CC25831603171108013A031D48
:100D6000B32E9101B62E83160317910A0800831241
:100D70000313D0008316031388010A30FF00831287
:100D800003135008CC25831203135008D100031914
:100D9000CE2E5008013A0319DA2EE52E83160313DE
:100DA000050883120313D100DF30510583160313A6
:100DB0008500E52E83160313050883120313D10063
:100DC000EF3051058316031385000030FF008312B6
:100DD000031350088A110A12F6258A110A12080014
:100DE00083120317BE007F08BF00831203131F1472
:100DF000831203173F0C0318002F831603139F134E
:100E0000031C052F831603139F1704308312031747
:100E10003E05C0000310400CC1000310C10C410C82
:100E20000318152F831203139F12031C1A2F83120A
:100E300003139F160230831203173E05C0000310F0
:100E4000400CC100410C0318282F831203131F12FA
:100E5000031C2D2F831203131F16831203173E0842
:100E60000139C000BE003E0C0318392F8312031352
:100E70009F11031C3E2F831203139F15831203132C
:100E80001F1583120317BE01831203131F1D4B2F5F
:100E900083120317BE0A831203173E08C000013AEB
:100EA0000319412F3F0803196A2F831203131E08E9
:100EB00083120317C100BF00BE01C00183160313D4
:100EC0001E0883120317BF00BE010030BF04410893
:100ED000BE04892F831203131E0883120317C00058
:100EE000C1010310400DC200410DC3000310C20D2B
:100EF000C30D831603131E0E0F3983120317C00090
:100F00000310C00C0310C00C40084204BF0043088B
:100F1000BE00831203131F10831203173F08FF0044
:100F20003E08080083120317BB00831203131F102F
:100F30000430831203173B05BC0003103C0CBD00BA
:100F40000310BD0C3D0C0318A82F831603131F13A9
:100F5000031CAD2F831603131F17023083120317D0
:100F60003B05BC0003103C0CBD003D0C0318BB2F1F
:100F7000831203139F13031CC02F831203139F17A5
:100F8000831203173B080139BC00BB003B0C03185C
:100F9000CC2F831203131F13031CD12F83120313AF
:100FA0001F17831603139F151F119F141F1008008E
:100FB00083120317E6007F08E700E8010830E90024
:100FC00083120317661CE62F6708E80783120317CE
:100FD0006608EA0003106A0CE6000310670DEA00D9
:100FE000E7006903EA00E9006A08031DE02F6808CA
:100FF00008000A3400340034003400340034003473
:1010000083160313C101C2010A3083160313CC07F0
:101010000318CD0A4C08643A031D11284D08003A04
:10102000031DC32883160313CC01CD010030FF003C
:1010300002308A110A12F0268A150A128316031347
:10104000C8007F08C7000310C80CC70C8316031321
:101050004E08FD004F08FE000230FF0000308A15E8
:101060000A12EF258A150A1283160313C4007F089B
:10107000C3003C3EC30044080318440F003EC400B4
:101080004308831203138400831383160313441845
:101090008317831603134708831203138000840AFF
:1010A0008316031348088312031380008316031367
:1010B000CE0A0319CF0A4E080A3A031DC3284F0867
:1010C000003A031DC328CE01CF01831603134E0837
:1010D000FD004F08FE000230FF0000308A150A12A2
:1010E000EF258A150A1283160313C4007F08C30074
:1010F0003C3EC30044080318440F003EC4004308AC
:101100008312031384008313831603134418831775
:1011100083120313000883160313C50083120313FD
:10112000840A000883160313C6004508C107460851
:101130000318460FC20783160313CE0A0319CF0AFA
:1011400000304F02031DA6280A304E02031C6528FA
:101150000A30FD000030FE00831603134108FF0033
:1011600042088A150A12A0258A150A12831603134B
:10117000CA007F08C900013083160313CB00831611
:101180000313CE01CF01080083160313CB0108001F
:10119000831603134B080800831603134908FF0046
:1011A0004A080800831603134708FF004808080090
:1011B00001308A110A1292278A150A128316031324
:1011C000C701C801080083120317B8007F08B700E1
:1011D0004721831603139115472183120313130824
:1011E00083120317B900BA01472183120317370886
:1011F0003804003003190130B700370C03180329F5
:10120000831603139112031C0829831603139116E6
:10121000831603131116831203173908FF003A08C7
:1012200008008312031393004721831203138C1DBC
:1012300015298C1183120317B60183160313111F8E
:10124000242983120317B60A8312031736080800ED
:1012500083160313911647218316031311160800F2
:1012600083160313911247218316031311160800E6
:101270004721831603131115080047218316031312
:1012800091140800472183160313111408008316D4
:1012900003131419472911081F39031D4729080092
:1012A00083120317B4007F08B3007E08B2007D08E4
:1012B000B1002830831203139400831603139101A5
:1012C000831203173108F9003208FA003308FB00D3
:1012D0003408FC000430FD000030FE000030FF0048
:1012E00000308A150A125F228A150A128312031728
:1012F000B4007F08B3007E08B2007D08B100F90099
:101300003208FA003308FB003408FC000030FD000E
:101310001230FE007A30FF0000308A150A12A9232D
:101320008A150A1283120317B4007F08B3007E08DF
:10133000B2007D08B100B500350383160313930096
:10134000940187150716080083160313DB007F0836
:10135000DA00DC0110305B05DD00DC00DB015A083F
:10136000DD008A150A1242218A150A128316031318
:101370005C080319C229A2308A150A1211218A15A4
:101380000A12C829A0308A150A1211218A150A12D8
:10139000831603135D088A150A1211218A150A1291
:1013A0008A150A123D218A150A12831603135C0856
:1013B0000319E129A3308A150A1211218A150A128C
:1013C000E729A1308A150A1211218A150A12013063
:1013D000FF0000308A150A12E3208A150A128316CC
:1013E0000313DB007F08DA00DC008A150A123821BB
:1013F0008A150A12831603135C0808008316031368
:10140000D1007F08D0007E08D200D300D401D201E1
:1014100010305105D500D200D600D701D7015008B1
:10142000D600D500D6018A150A1242218A150A1261
:101430008316031352080319242AA2308A150A12AC
:1014400011218A150A122A2AA0308A150A1211219E
:101450008A150A128316031355088A150A121121D8
:101460008A150A12831603135308D7008A150A1225
:1014700011218A150A128A150A1238218A150A12B0
:1014800083160313D60A5008FF0051088A150A1262
:10149000A4218A150A1283160313D700D800D90194
:1014A00058085306031D582A5908540603195E2A82
:1014B0000A30831603135602031C132A08008316EE
:1014C0000313A3007F08A2007E08A1007D08A000EE
:1014D0007C08A7007B08A6007A08A5007908A4006C
:1014E000A801A901AA01AB010830AC0083160313BF
:1014F000201C882A2408A80725080318250FA907F7
:1015000026080318260FAA0727080318270FAB077A
:10151000831603132008AD002108AE002208AF0097
:101520002308B0002E1CA82A2608B0002508AF000A
:10153000AD010030A8072408AE0003182E0FA9073C
:101540002F0803182F0FAA0730080318300FAB0716
:10155000831603132008AD002108AE002208AF0057
:101560002308B0002F1CC82A2508B0002408AF00AB
:10157000AE01AD010030A807003003182E0FA907F7
:101580002F0803182F0FAA0730080318300FAB07D6
:10159000831603132008AD002108AE002208AF0017
:1015A0002308B000301CE72A2408B000AF01AE01C8
:1015B000AD010030A807003003182E0FA9072F082F
:1015C00003182F0FAA0730080318300FAB07831634
:1015D00003132008AD002108AE002208AF00230845
:1015E000B0000310300CA3002F0CA2002E0CA100A1
:1015F0002D0CA0000310A40DA50DA60DA70D2C0306
:10160000AD00AC002D08031D762A2808FD0029082E
:10161000FE002A08FF002B080800C030FE000E3034
:10162000FF0080308A150A1211278A150A128316C4
:101630000313DF007F08DE00C230E0000E30E1005F
:10164000831603135E08E2005F08E300FF30DE0745
:10165000031CDF03620863040319A52B0430600731
:10166000E200E301E30D6108E3076208FE0063089E
:10167000FF0080308A150A1211278A150A12831674
:101680000313E5007F08E4006008FE006108FF0026
:1016900080308A150A1211278A150A12831603133D
:1016A000E700E3007F08E600E20002306007E200A6
:1016B000E301E30D6108E3076208FE006308FF0031
:1016C00080308A150A1211278A150A12831603130D
:1016D000E300E9007F08E200E800831603136408D2
:1016E000E8006508E900FF30E407031CE50368082B
:1016F000690403199E2B6608FE006708FF0080300E
:101700008A150A12FE268A150A1283160313E800A8
:101710006208831203138400831383160313631870
:101720008317680883120313800083160313E60AE5
:101730000319E70AE20A0319E30A6D2B0630831640
:101740000313E0070318E10A202B8A150A127F2EE3
:10175000080083160313B4007F08B3007E08B200AC
:101760007D08B1007C08B8007B08B7007A08B60095
:101770007908B500B901BA01BB01BC010130BD0057
:10178000BE01BF01C0013508360437043804031D0B
:10179000D12BFF30FD00FF30FE00FF30FF00FF3097
:1017A0002C2C83160313B81BE02B0310B50DB60DBC
:1017B000B70DB80D0310BD0DBE0DBF0DC00DD12B63
:1017C000831603133D083E043F0440040319232CF1
:1017D00038083402031DF62B37083302031DF62B9D
:1017E00036083202031DF62B35083102031C162C75
:1017F000831603133D08B9073E0803183E0FBA07C6
:101800003F0803183F0FBB0740080318400FBC07F1
:101810003508B1023608031C360FB2023708031C24
:10182000370FB3023808031C380FB40203108316B5
:101830000313B80CB70CB60CB50C0310C00CBF0CDE
:10184000BE0CBD0CE02B831603133908FD003A08CB
:10185000FE003B08FF003C08080008008312031745
:10186000CB00CC014B08031D3F2C803083120313A7
:10187000060583120317CB004B0DCC01CC0D831250
:1018800003174C08080083120317C8007F08C9001B
:101890004808CA00031D5C2C831203130608831238
:1018A0000317C800C813490CCA01CA0C4A08C9006A
:1018B0004804831203138600080083120317C7002D
:1018C0008A150A122E248A150A12013A031D732C56
:1018D0000030FF008312031747088A150A124324B9
:1018E0008A150A127D2C0130FF0083120317470866
:1018F0008A150A1243248A150A1208008312031754
:10190000C4007F08C5004408C600031D922C83163E
:101910000313060883120317C6007F30460583169B
:1019200003138600831203174508FF0044088A1535
:101930000A1243248A150A1208008A110A12A725DE
:101940008A150A120030FF0000308A150A12652538
:101950008A150A120030FF0000308A150A1212257B
:101960008A150A128A110A1235208A150A128A115A
:101970000A1242248A150A1208008A110A127D26C8
:101980008A150A128A110A1235208A150A128A1536
:101990000A1200208A150A128A110A1277258A155E
:1019A0000A128A110A1242248A150A1208008316A2
:1019B0000313811608008316031793018312031380
:1019C0000B1DE52C83160317930A831603171308C0
:1019D0000800831203130B118B168B178316031346
:1019E000811208008316031301158114011481115B
:1019F00081160800080083120317DC00DD015C0873
:101A0000031D0E2D043083120313070583120317E1
:101A1000DC0003105C0CDD000310DD0C83120317E7
:101A20005D08080083120317D9007F08DA005908FF
:101A3000DB00031D2D2D83120313070883120317E8
:101A4000D900591103105A0DDB000310DB0D5B08A0
:101A5000DA00590483120313870008008312031766
:101A6000D6007F08D7005608D800031D422D8316E4
:101A70000313070883120317D800FB305805831699
:101A800003138700831203175708FF0056088A15AF
:101A90000A1212258A150A12080008008312031779
:101AA000E400E5016408031D612D20308312031357
:101AB000070583120317E400640E0F39E5000310D5
:101AC000E50C831203176508080083120317E10071
:101AD0007F08E2006108E300031D802D83120313D9
:101AE000070883120317E100E112620EF039E300E8
:101AF0000310E30D6308E2006104831203138700FF
:101B0000080083120317DE007F08DF005E08E00094
:101B1000031D952D83160313070883120317E00096
:101B2000DF306005831603138700831203175F08F5
:101B3000FF005E088A150A1265258A150A12080038
:101B400083120317CE007F08CD007E08D0007D08E9
:101B5000CF00D101D2010130D300D4014F0850048D
:101B6000031DB62DFF30FF00FF30EE2D831203174B
:101B70004F085008D500D51BC42D0310CF0DD00D34
:101B80000310D30DD40DB62D83120317530854043C
:101B90000319E92D50084E02031DD02D4F084D02A8
:101BA000031CE02D831203175308D10754080318B0
:101BB000540FD2074F08CD025008031C500FCE021D
:101BC000031083120317D00CCF0C0310D40CD30CCA
:101BD000C42D831203175108FF0052080800831216
:101BE0000317A7007F08A6007E08A9007D08A800AB
:101BF000AA01AB010830AC00831203172608AD0020
:101C00002708AE002D1C0A2E2808AA072908031849
:101C1000290FAB07831203172608AD002708AE0073
:101C20000030AE1BFF30B000AF002E1C242EAD01E3
:101C30002A08AF002B08B00000302F07AA002808A0
:101C4000AE0003182E0FAB07831203172608AD0052
:101C50002708AE0003102E0CA7002D0CA6000310C1
:101C6000A80DA90D2C03AD00AC002D08031DFC2D03
:101C70002A08FF002B08080083160313EB007F08D7
:101C8000EA007E08ED007D08EC006D04031D4C2E7B
:101C9000FF30FF00FF307E2E013083160313EE006D
:101CA000831603136C086D08EF00EF1B5C2E031006
:101CB000EC0DED0DEE0A502E0030831603136E046A
:101CC0000319792E6D086B02031D682E6C086A02D9
:101CD000031C722E831603136C08EA026D08031CA2
:101CE0006D0FEB02031083160313ED0CEC0CEE03E7
:101CF0005C2E831603136A08FF006B0808008A1520
:101D00000A12F2248A150A128A110A1281248A15EB
:101D10000A12A030FD008630FE000130FF000030C6
:101D20008A150A1250218A150A128A110A129E2255
:101D30008A150A120030FF0000308A150A12812528
:101D40008A150A120030FF0000308A150A122E256B
:101D50008A150A128A110A1219228A150A128A1180
:101D60000A12A7258A150A128A150A12D8208A157E
:101D70000A128A150A12E9248A150A12BE2E0800D0
:101D80000A340034FD340734903401340134003413
:101D900046340F341B3401340B340034FE34073422
:101DA0009134013401340034F93407346B34013494
:101DB00002340034FF3407349234013401340034E7
:101DC00032340F343C3400341434003451340F3482
:101DD0009434013401340034FB3407346D3401345D
:101DE0000234003452340F34963401340134003458
:101DF00053340F349834013401340034003A031959
:101E0000052F803A03190C2F00347E0884008313B9
:101E10007F188317000808007F088A007E08820068
:101E20000800003A0319192F803A0319232FFF01E4
:101E300000347E08840083137F1883170008FF0096
:101E4000840A000808008A150A120C27FD00FE0FFC
:101E5000FF03FF0A8A150A120C27FC007D08FF0009
:101E60007C080800003400340034003400340034AE
:101E700000340034003400340034003400340034C2
:101E80000034003400340034003400343F3406346D
:101E90005B344F3466346D347D3407347F346F34B3
:081EA00000340034003400346A
:02400E00323F3F
:00000001FF
